:1000000000308A008C2800000A108A100A1182072A
:100010003134343437342A343234353438343034AB
:100020003334363439342334413442344334443461
:100030008A110A12A828AC01A00A2008213C031842
:100040007B282308FC3E03183E28043E8428FE300B
:1000500083168600831286003E28FD3083168600B4
:10006000831286003E28FB308316860083128600AA
:100070003E28F7308316860083128600211C4A280A
:100080000608F039F03C031D492821102208AC0075
:10009000A2017A280608F039F03C031975280608F1
:1000A0001039031D5528AD01692806082039031DA4
:1000B0005C280130AD00692806084039031D63281B
:1000C0000230AD00692806088039031D6928033015
:1000D000AD002D0DF700F70DFC30F705770823076D
:1000E0000420F800A20021147A28A30A2308043C63
:1000F0000319A301A001FF308316860083122C0888
:10010000F8008A110A12AC280A108A100A11820714
:1001100027282D283328392803081F398300193050
:1001200083169900A6309800903083129800A6019B
:1001300083161F149F141F159F1107309C008313F3
:100140008312A0012110A201A301A401A501182876
:100150008316811383121B287808A700A7080319A8
:10016000C02828302607840083132708800027082A
:100170000C1EB82899000A300C1EBC289900A60A4B
:04018000AB28630045
:02400E00393F38
:00000001FF
;PIC16F877A
;CRC=DC3F  CREATED="20-nov-22 19:28"
